:020000040800F2
:1000000000000120D1100008290D00081503000888
:100010002B0D00082D0D00082F0D0008000000001A
:10002000000000000000000000000000191100089E
:10003000310D0008000000009B020008892800081C
:1000400019110008191100081911000819110008E8
:1000500019110008191100081911000819110008D8
:1000600019110008191100081911000819110008C8
:1000700019110008191100081911000819110008B8
:1000800019110008191100081911000819110008A8
:100090001911000819110008191100081911000898
:1000A0001911000819110008191100081911000888
:1000B0001911000819110008191100081911000878
:1000C0001911000819110008191100081911000868
:1000D0001911000819110008191100081911000858
:1000E0001911000819110008191100081911000848
:1000F0001911000819110008191100081911000838
:100100001911000819110008191100081911000827
:100110001911000819110008191100081911000817
:100120001911000819110008191100081911000807
:1001300000000000000000000000000000000000BF
:1001400000000000000000000000000000000000AF
:10015000000000000000000000000000000000009F
:10016000000000000000000000000000000000008F
:10017000000000000000000000000000000000007F
:10018000000000000000000000000000000000006F
:10019000000000000000000000000000000000005F
:1001A000000000000000000000000000000000004F
:1001B000000000000000000000000000000000003F
:1001C000000000000000000000000000000000002F
:1001D000000000000000000000000000000000001F
:0401E0005FF8E0F1F3
:1001E4000348044B834202D0034B03B118477047C2
:1001F4006C0400206C04002000000000054806493F
:100204000B1AD90F01EBA301491002D0034B03B120
:10021400184770476C0400206C04002000000000A4
:1002240010B5064C237843B9FFF7DAFF044B13B13A
:100234000448AFF300800123237010BD6C04002038
:1002440000000000CC4E000808B5044B1BB1044963
:100254000448AFF30080BDE80840CFE70000000089
:1002640070040020CC4E0008EFF3108072B6704783
:1002740080F310887047354A1368012B04D04FF07F
:1002840001031360324A1060324A116032484FF061
:10029400805101607047EFF3108272B62B480168F9
:1002A40091B14FF0000101602948016829B1EFF3D1
:1002B400098121E9F00F006801602649096809688D
:1002C400B1E8F00F81F3098882F310884EF0040E30
:1002D4007047204908601E494FF0000008601B4920
:1002E4004FF0010008601D481D49D0F8002041EA84
:1002F4000201016018484FF08051016019480068FC
:10030400006800BF80F3088861B662B6704700BF1A
:10031400EFF308801EF0040F01D0EFF3098020E909
:10032400F00F40F804ED1EF0040F02D080F30988AA
:1003340001E080F3088800B503F024FA5DF804EBCB
:100344004EF0040E7047EFF305807047844200209E
:100354007C4200208042002004ED00E020ED00E01B
:100364000000FFFF08ED00E04FF0FF0C1CEAD05244
:100374001EBF1CEAD15392EA0C0F93EA0C0F6FD004
:100384001A4480EA010C400218BF5FEA41211ED0E2
:100394004FF0006343EA501043EA5111A0FB0131CE
:1003A4000CF00040B1F5000F3EBF490041EAD371A3
:1003B4005B0040EA010062F17F02FD2A1DD8B3F11F
:1003C400004F40EBC25008BF20F00100704790F08E
:1003D400000F0CF0004C08BF49024CEA502040EAE0
:1003E40051207F3AC2BFD2F1FF0340EAC2507047A6
:1003F40040F400004FF00003013A5DDC12F1190FE4
:10040400DCBF00F000407047C2F10002410021FA55
:1004140002F1C2F1200200FA02FC5FEA310040F16D
:10042400000053EA4C0308BF20EADC70704792F0E6
:10043400000F00F0004C02BF400010F4000F013A1E
:10044400F9D040EA0C0093F0000F01F0004C02BF19
:10045400490011F4000F013BF9D041EA0C018FE788
:100464000CEAD15392EA0C0F18BF93EA0C0F0AD08E
:1004740030F0004C18BF31F0004CD8D180EA0100B4
:1004840000F00040704790F0000F17BF90F0004F4D
:10049400084691F0000F91F0004F14D092EA0C0F2F
:1004A40001D142020FD193EA0C0F03D14B0218BFC2
:1004B400084608D180EA010000F0004040F0FE4008
:1004C40040F40000704740F0FE4040F440007047A4
:1004D40080F0004002E000BF81F0004142001FBFF5
:1004E4005FEA410392EA030F7FEA226C7FEA236CFE
:1004F4006AD04FEA1262D2EB1363C1BFD2184140F3
:1005040048404140B8BF5B42192B88BF704710F088
:10051400004F40F4000020F07F4018BF404211F02B
:10052400004F41F4000121F07F4118BF494292EA93
:10053400030F3FD0A2F1010241FA03FC10EB0C00BF
:10054400C3F1200301FA03F100F0004302D549424C
:1005540060EB4000B0F5000F13D3B0F1807F06D3F9
:1005640040084FEA310102F10102FE2A51D2B1F1F1
:10057400004F40EBC25008BF20F0010040EA0300E6
:100584007047490040EB0000013A28BFB0F5000F66
:10059400EDD2B0FA80FCACF1080CB2EB0C0200FA1C
:1005A4000CF0AABF00EBC25052421843BCBFD0406B
:1005B4001843704792F0000F81F4000106BF80F4E5
:1005C40000000132013BB5E74FEA41037FEA226CA8
:1005D40018BF7FEA236C21D092EA030F04D092F073
:1005E400000F08BF0846704790EA010F1CBF0020A7
:1005F400704712F07F4F04D1400028BF40F0004004
:10060400704712F100723CBF00F50000704700F023
:10061400004343F0FE4040F4000070477FEA22624A
:1006240016BF08467FEA23630146420206BF5FEA1B
:10063400412390EA010F40F4800070474FF000031B
:1006440004E000BF10F0004348BF40425FEA000CE2
:1006540008BF704743F0964301464FF000001CE08A
:1006640050EA010208BF70474FF000030AE000BFE0
:1006740050EA010208BF704711F0004302D540421E
:1006840061EB41015FEA010C02BF84460146002090
:1006940043F0B64308BFA3F18053A3F50003BCFAAB
:1006A4008CF2083AA3EBC25310DB01FA02FC634458
:1006B40000FA02FCC2F12002BCF1004F20FA02F25F
:1006C40043EB020008BF20F00100704702F1200252
:1006D40001FA02FCC2F1200250EA4C0021FA02F2B3
:1006E40043EB020008BF20EADC7070474FEA400287
:1006F400B2F1FE4F0FD34FF09E03B3EB12620DD94C
:100704004FEA002343F0004310F0004F23FA02F0B5
:1007140018BF404270474FF00000704712F1610F5C
:1007240001D1420205D110F0004008BF6FF0004033
:1007340070474FF000007047002301461A461846E0
:1007440000F0BCB938B50A4C0A4D641BA4100AD099
:1007540004F18043013B05EB8305013C55F8043962
:100764009847002CF9D1BDE8384004F0B3BB00BF72
:10077400E45A0008E05A000870B50D4E0D4D761B82
:10078400B61006D00024013455F8043B9847A6421D
:10079400F9D1094E094D04F097FB761BB61006D02B
:1007A4000024013455F8043B9847A642F9D170BDA2
:1007B400D85A0008D85A0008E05A0008D85A000845
:1007C400844641EA000313F0030349D1403A23D39A
:1007D4000B6803604B6843608B688360CB68C360BD
:1007E4000B6903614B6943618B698361CB69C361A5
:1007F4000B6A03624B6A43628B6A8362CB6AC3628D
:100804000B6B03634B6B43638B6B8363CB6BC36374
:1008140040304031403ADBD230320BD30B680360B6
:100824004B6843608B688360CB68C36010301031C1
:10083400103AF3D20C3205D351F8043B40F8043B90
:10084400043AF9D2043208D0D2071CBF11F8013B94
:1008540000F8013B01D30B8803806046704700BF5A
:10086400082A13D38B07B1D010F00303AED0C3F121
:100874000403D21ADB071CBF11F8013B00F8013B4B
:10088400A4D331F8023B20F8023B9FE7043AD9D3C2
:10089400013A11F8013B00F8013BF9D20B780370DF
:1008A4004B7843708B78837060467047F0B486074A
:1008B40046D0541E002A3CD0CAB2034602E014F1CA
:1008C400FF3436D303F8012B9D07F8D1032C29D923
:1008D400CDB245EA05250F2C45EA054533D9A4F1E7
:1008E4001006360903F1200707EB061703F110027F
:1008F40042E9045542E902551032BA42F8D1721C59
:1009040014F00C0F03EB021204F00F0613D0331F84
:1009140023F003030433134442F8045B9342FBD1F2
:1009240006F003042CB1C9B21C4403F8011B9C4219
:10093400FBD1F0BC704734461346002CF3D1F8E7E2
:1009440014460346C2E71A462646E0E720F00301B0
:1009540010F00300C0F1000051F8043B00F1040C56
:100964004FEACC0C6FF000021CBF22FA0CF21343C6
:100974004FF0010C4CEA0C2C4CEA0C4CA3EB0C028F
:1009840022EA030212EACC1204BF51F8043B0430F9
:10099400F4D0C2F1000102EA0102B2FA82F2C2F119
:1009A4001F0200EBD2007047002A44D040EA010342
:1009B40013F00303F0B425D1032A23D904680D6886
:1009C400AC423AD1043A33D0A4F1013525EA040407
:1009D40014F0803F2CD1071D0D1D0DE057F8043B8A
:1009E4000E68A3F10134B34224EA030425D1043A86
:1009F4001ED014F0803F1BD1032A2946384605F146
:100A04000405EBD803780D78561E9D420DD17EB1B6
:100A140073B1044602E082180AD04BB114F8013FC6
:100A240011F8015F321BAB42F5D0581BF0BC704784
:100A34000020F0BC70471046704703780D78561EAE
:100A44009D42E5D0F1E700BF70B440EA0104A3077A
:100A540027D1032A25D90B460646194653F8045BC9
:100A6400A5F1013424EA050414F0803F06D1043AC8
:100A7400032A46F8045B1946EFD882B133460C7852
:100A8400551E03F8014B74B132442E4405E011F8AD
:100A9400014FF51A03F8014B2CB19A42F7D170BCFF
:100AA40070470646E9E7002DF9D000221D4403F8FB
:100AB400012BAB42FBD170BC704700BFF0B4174CA4
:100AC4002568D5F848410CB365681F2D23DC38B977
:100AD40000206B1C0235636044F82510F0BC70479D
:100AE400012604EB850CCCF88820D4F8887106FA2A
:100AF40005F217430228C4F88871CCF80831E7D10D
:100B0400D4F88C311A43C4F88C21E1E705F5A674B6
:100B1400C5F84841D8E74FF0FF30DFE7AC4F000895
:100B240000B585B000230193029303931148124A40
:100B3400026083600122027303754FF46021C16176
:100B44004360026100F0AAFC68B90B2301930123FE
:100B540002930023039301A9064800F01FFB28B960
:100B640005B05DF804FB00F063F8EEE700F060F810
:100B7400F6E700BF880400200024014000B587B0D8
:100B8400002302930393049305930268114B9A4242
:100B940002D007B05DF804FB03F56C439A6942F494
:100BA40000729A619A6902F400720092009A9A693A
:100BB40042F010029A619B6903F010030193019BB8
:100BC400022302930323039302A9034800F054FD74
:100BD400DFE700BF002401400010014084B0134B44
:100BE4009A6942F010029A619A6902F01002009226
:100BF400009A9A6942F008029A619A6902F008021E
:100C04000192019A9A6942F040029A619A6902F04B
:100C140040020292029A9A6942F004029A619B6924
:100C240003F004030393039B04B0704700100240D5
:100C340072B6FEE700B597B000230F931193129399
:100C44000793089309930A930B93019302930393D5
:100C540004930593069301210C914FF480320D9275
:100C64000E9310910223139314924FF4E0131593EF
:100C74000CA800F033FEC8B90F2307930221089192
:100C8400002309934FF480620A920B9307A801F0A2
:100C940057F868B9022301934FF40043039301A862
:100CA40001F02AF930B917B05DF804FBFFF7C0FF73
:100CB400FFF7BEFFFFF7BCFF08B500F053FAFFF7DC
:100CC400B9FFFFF78BFF00F0F1F800F067F900F0CF
:100CD400A7F9FFF725FF4FF47A7003F0B3FEFAE7A4
:100CE40082B00E4B9A6942F001029A619A6902F04D
:100CF40001020092009ADA6942F08052DA61DB69FB
:100D040003F080530193019B054A536823F0E06389
:100D140043F00073536002B0704700BF00100240FC
:100D240000000140FEE7FEE7FEE7FEE7704770477C
:100D34001F4B5B6803F00C03042B14D0082B16D054
:100D44001BB11C4B1C4A1A6002E01A4B1A4A1A6067
:100D5400174B5B68C3F30313184AD15C154A136835
:100D6400CB4013607047134B134A1A60F0E7104AE4
:100D740053685268C3F38343023312F4803F05D1AE
:100D84000F4A02FB03F30B4A1360E1E7084A526877
:100D940012F4003F05D00A4A02FB03F3054A13602C
:100DA400D6E7054A02FB03F3024A1360D0E700BF0B
:100DB400001002403004002000127A00B04F0008F6
:100DC40000093D0082B003680E4A934204D00E4AE3
:100DD40093420CD002B070470C4B9A6942F4006203
:100DE4009A619B6903F400630093009BF2E7074B4D
:100DF400DA6942F00202DA61DB6903F0020301936B
:100E0400019BE7E7002C0140000400400010024071
:100E140000B587B0002302930393049305930368FA
:100E24001C4A934205D01C4A93421ED007B05DF879
:100E340004FB1A4B9A6942F040029A619B6903F0E1
:100E440040030093009B4FF428530293022303931F
:100E5400059302A9124800F00FFC124A536843F0AC
:100E6400E06343F0C0035360E0E70C4B9A6942F03F
:100E740008029A619B6903F008030193019B012313
:100E8400029302230393059302A9074800F0F4FB9D
:100E9400CCE700BF002C01400004004000100240D9
:100EA4000018014000000140000C014010B592B050
:100EB40000241094119409940A940B940C940D94A6
:100EC4000E940F942022214601A8FFF7EFFC31482D
:100ED400314B03602323436084606323C360046154
:100EE40044618023836101F09FF900283DD12948A2
:100EF40001F06EF900283BD100231093119310A93F
:100F0400244801F01DFB002835D1602309930022F9
:100F14000A920B920C920D920E920F9209A91D48FF
:100F240001F015FA50BB00230993042209A91948BA
:100F340001F0DEF928BB082209A9164801F0D8F906
:100F440010BB0023019302930393049305934FF47E
:100F540000520692089301A90E4801F02DFBB0B986
:100F64000C48FFF755FF12B010BDFFF761FEBEE756
:100F7400FFF75EFEC0E7FFF75BFEC6E7FFF758FE2C
:100F8400D1E7FFF755FED6E7FFF752FED9E7FFF7A3
:100F94004FFEE5E7B8040020002C014000B58BB0FB
:100FA40000230893099301930293039304930593F5
:100FB400069307931848194A0260472242608360E7
:100FC4004FF47A72C26003618023836101F02CF9CB
:100FD400C8B900230893099308A90F4801F0B0FA8F
:100FE400A0B960230193002302930393059308227D
:100FF40001A9094801F0ABF958B90748FFF708FF00
:101004000BB05DF804FBFFF713FEE2E7FFF710FEF9
:10101400E7E7FFF70DFEF0E70005002000040040BD
:1010240008B50A480A4B03604FF4E13343600023D8
:101034008360C36003610C2242618361C36101F078
:101044006FFB00B908BDFFF7F3FDFBE7480500207F
:101054000038014010B586B0002302930393049333
:1010640005930268174B9A4201D006B010BD03F5F0
:1010740058439A6942F480429A619A6902F4804220
:101084000092009A9A6942F004029A619B6903F003
:1010940004030193019B4FF400730293022303930F
:1010A40003230593084C02A9204600F0E5FA4FF407
:1010B4008063029300230393049302A9204600F063
:1010C400DBFAD2E70038014000080140FFF72FFEA9
:1010D4000B480C490C4A002302E0D458C450043392
:1010E400C4188C42F9D3094A094C002301E0136067
:1010F4000432A242FBD3FFF73FFB02F054FC7047DB
:10110400000000206C040020E45A00086C04002055
:10111400E4450020FEE7000010B504460E4B1878A5
:101124004FF47A73B3FBF0F30C4A1068B0FBF3F09E
:1011340000F08CFA68B90F2C01D901200AE00022D2
:1011440021464FF0FF3000F04DFA054B1C600020A3
:1011540000E0012010BD00BF340400203004002052
:101164003804002008B5074A136843F010031360DD
:10117400032000F025FA0020FFF7CEFFFFF7B0FDB3
:10118400002008BD00200240014B1868704700BFD2
:10119400900500200368D86C7047000030B482B01A
:1011A4000022019290F82420012A00F08B8003464B
:1011B400012280F824204A68062A29D80568686B29
:1011C40002EB8202053A1F24944020EA04000C68D2
:1011D40004FA02F202436A630A68092A38D91D68CC
:1011E400E86802EB42021E3A0724944020EA040015
:1011F4008C6804FA02F20243EA600A68103A012A8F
:1012040034D90020002283F8242002B030BC704777
:101214000C2A0ED80568286B02EB8202233A1F249D
:10122400944020EA04000C6804FA02F202432A63A0
:10123400D2E70568E86A02EB8202413A1F2494402F
:1012440020EA04000C6804FA02F20243EA62C3E7EB
:101254001D68286902EB42020724944020EA040036
:101264008C6804FA02F202432A61C6E71A68164837
:10127400824205D09A6A42F020029A620120C1E7B4
:10128400906810F4000F1BD1906840F40000906047
:101294000A68102A01D00020B4E70C4A12680C49ED
:1012A400A1FB0212920C02EB82025200019202E0B4
:1012B400019A013A0192019A002AF9D10020A1E78A
:1012C40000209FE70220A0E7002401403004002012
:1012D40083DE1B4330B583B00023019303689A680F
:1012E40012F0010F32D104469A6842F001029A606A
:1012F400184B1B68184AA2FB03239B0C0193019B08
:101304001BB1019B013B0193F9E7FFF73DFF054644
:1013140023689B6813F0010F16D1FFF735FF431BB9
:10132400022BF5D923689B6813F0010FF0D1A36A4F
:1013340043F01003A362E36A43F00103E362002372
:1013440084F82430012002E0002000E0002003B0F3
:1013540030BD00BF3004002083DE1B4390F82430EE
:10136400012B68D010B50446012380F82430FFF720
:10137400B1FF00285BD1A36A23F4407323F0010377
:1013840043F48073A36223682C4A934227D0A26A51
:1013940022F48012A2625A6812F4806F05D0A26A05
:1013A40022F4405242F48052A262A26A12F4805F94
:1013B4002BD0E26A22F00602E262002284F82420A2
:1013C4006FF002021A6023689A6802F46022B2F590
:1013D400602F1DD09A6842F480129A602AE0A2F528
:1013E4008062526812F4702FD1D0A26A42F4801243
:1013F400A262134A526812F4806FD6D0A26A22F411
:10140400405242F48052A262CFE70022E262D4E763
:101414000A4A934204D09A6842F4A0029A6009E00E
:10142400A2F58062526812F4702FD3D1F3E700233F
:1014340084F8243010BD0220704700BF002801400A
:101444000024014038B503689A6812F0010F01D1F5
:10145400002038BD04469A6822F001029A60FFF722
:1014640093FE054623689B6813F0010F13D0FFF722
:101474008BFE431B022BF5D923689B6813F0010FE5
:10148400F0D0A36A43F01003A362E36A43F00103BC
:10149400E3620120DDE70020DBE70000002800F024
:1014A4008680F8B50446836A002B50D02046FFF7A7
:1014B400C9FFA36A13F0100373D1002871D1A26A83
:1014C40022F4885222F0020242F00202A26262680E
:1014D400266838498E4240D0E1690A43217B42EABA
:1014E4004102A568B5F5807F02D0012D3CD01D4690
:1014F400277D012F3BD0716821F469412943716034
:101504002568AE682C4931401143A960A168B1F542
:10151400807F01D0012902D12369013B1B05256885
:10152400E96A21F470010B43EB6223689968234B49
:101534000B409A422CD0A36A23F0120343F0100309
:10154400A362E36A43F00103E36201202EE0C36275
:1015540080F82430FFF712FBA8E7E169B1F5402FCA
:10156400BBD14FF40021B8E74FF48075C0E731B91F
:10157400A169013945EA413141F40065BBE7A16A3B
:1015840041F02001A162E16A41F00101E162B2E7A8
:101594000023E362A36A23F0030343F00103A3627D
:1015A40004E0A36A43F01003A3620120F8BD012004
:1015B400704700BF003C0140FDF7E1FFFE0E1FFF36
:1015C400074AD36823F4E0631B041B0C000200F4F5
:1015D400E060034343F0BF6343F40033D3607047D8
:1015E40000ED00E030B4174BDB68C3F30223C3F112
:1015F4000704042C28BF04241D1D062D18D9033B01
:101604004FF0FF3505FA04F421EA0401994005FA84
:1016140003F322EA0303194300280BDB0901C9B2CF
:1016240000F1604000F5614080F8001330BC704761
:101634000023E5E700F00F000901C9B2024B195479
:10164400F4E700BF00ED00E014ED00E00138B0F174
:10165400807F0AD2064B5860064AF02182F8231094
:101664000020986007221A6070470120704700BF6D
:1016740010E000E000ED00E0F0B482B000252C465C
:10168400ABE0854FBB4210D007D9844FBB420CD08E
:1016940007F58037BB4208D013E0A7F58017BB429B
:1016A40003D007F57027BB4207D18B68002B60D0AD
:1016B400012B59D04261082503E0A7F58017BB42EE
:1016C400F3D0FF2E57D88446FF2E57D8A200DCF85B
:1016D40000300F27974023EA070305FA02F2134369
:1016E400CCF800304B6813F0805F75D06C4B9A696E
:1016F40042F001029A619B6903F001030193019B8B
:10170400A208971C674B53F827C004F003039F00FB
:101714000F23BB402CEA030C634B984234D003F5EF
:101724008063984200F0948003F58063984200F04F
:10173400918003F58063984200F08E8003F5806306
:10174400984200F08B8003F5806398421AD00623F8
:101754001BE0CD68B5E7CD680435B2E7CD68083540
:10176400AFE7CD680C35ACE702610825A9E7002591
:10177400A7E70425A5E700F1040CA5E7A4F10802F6
:101784009200A4E7052300E00023BB4043EA0C03D6
:101794000232444F47F822304B6813F4801F5FD065
:1017A400424A9368334393604B6813F4001F5DD03F
:1017B4003E4AD3683343D3604B6813F4003F5BD095
:1017C4003A4A5368334353604B6813F4803F59D00B
:1017D400364A13681E43166001340B6833FA04F268
:1017E40056D00122A24003EA020632EA0303F3D1EF
:1017F4004B68122B3FF645AF122B3FF662AF01A7A1
:1018040057F823F0AF1600085717000861170008AF
:1018140073170008C7160008C7160008C716000883
:10182400C7160008C7160008C7160008C716000820
:10183400C7160008C7160008C7160008C716000810
:10184400C7160008C71600085B17000867170008CA
:1018540001239AE7022398E7032396E7042394E7F6
:10186400124A936823EA060393609DE70F4AD368FC
:1018740023EA0603D3609FE70C4A536823EA06036E
:101884005360A1E7094A136823EA06061660A3E732
:1018940002B0F0BC704700BF0000221000003110FD
:1018A4000010024000000140000801400004014013
:1018B40082B0084B1B68084AA2FB03235B0A00FBA7
:1018C40003F3019300BF019B5A1E0192002BF9D12F
:1018D40002B0704730040020D34D6210002800F09D
:1018E400F18170B582B00446036813F0010F2CD067
:1018F400AA4B5B6803F00C03042B1DD0A74B5B6859
:1019040003F00C03082B12D06368B3F5803F41D079
:10191400002B55D103F1804303F504331A6822F4F4
:1019240080321A601A6822F480221A6037E09B4BD6
:101934005B6813F4803FE7D0984B1B6813F4003FB7
:1019440003D06368002B00F0BF81236813F0020FFB
:1019540075D0924B5B6813F00C0F5FD08F4B5B68B4
:1019640003F00C03082B54D02369002B00F089806A
:101974008B4B01221A60FFF707FC0546874B1B6857
:1019840013F0020F74D1FFF7FFFB401B0228F5D9B7
:1019940003209EE1814A136843F480331360636833
:1019A40043B3FFF7F1FB05467C4B1B6813F4003F80
:1019B400CBD1FFF7E9FB401B6428F5D9032088E16C
:1019C400B3F5A02F09D0754B1A6822F480321A603F
:1019D4001A6822F480221A60E1E703F18043A3F538
:1019E4003C331A6842F480221A601A6842F4803246
:1019F4001A60D4E7FFF7C8FB0546684B1B6813F46D
:101A0400003FA2D0FFF7C0FB401B6428F5D9032098
:101A14005FE1624B5B6813F4803FA5D15F4B1B68A9
:101A240013F0020F03D02369012B40F04F815B4A6E
:101A3400136823F0F803616943EAC1031360236860
:101A440013F0080F32D0A369002B45D0554B012267
:101A54001A60FFF799FB0546504B5B6A13F0020FBF
:101A640021D1FFF791FB401B0228F5D9032030E177
:101A74004A4A136823F0F803616943EAC103136017
:101A8400DDE7474B00221A60FFF77EFB0546434B18
:101A94001B6813F0020FD2D0FFF776FB401B02281D
:101AA400F5D9032015E10120FFF702FF236813F0A5
:101AB400040F00F09780394BDB6913F0805F1DD170
:101AC400364BDA6942F08052DA61DB6903F0805305
:101AD4000193019B012512E0324B00221A60FFF7AB
:101AE40053FB05462D4B5B6A13F0020FDED0FFF764
:101AF4004BFB401B0228F5D90320EAE000252A4BC2
:101B04001B6813F4807F11D0E368012B22D0002BD3
:101B140038D103F1804303F504331A6A22F0010239
:101B24001A621A6A22F004021A6218E01E4A136842
:101B340043F480731360FFF727FB06461A4B1B68B8
:101B440013F4807FE0D1FFF71FFB801B6428F5D9D5
:101B54000320BEE0114A136A43F001031362E368F1
:101B640073B3FFF711FB06460C4B1B6A13F0020F0D
:101B740037D1FFF709FB801B41F288339842F3D930
:101B84000320A6E0052B11D0044B1A6A22F00102AF
:101B94001A621A6A22F004021A62E0E70010024094
:101BA4000000424280044242007000404D4B1A6AD9
:101BB40042F004021A621A6A42F001021A62CEE783
:101BC400FFF7E2FA0646474B1B6A13F0020F08D0F0
:101BD400FFF7DAFA801B41F288339842F3D90320E5
:101BE40077E0E5B9E369002B72D03E4A526802F00F
:101BF4000C02082A56D0022B17D03B4B00221A6045
:101C0400FFF7C2FA0446374B1B6813F0007F47D036
:101C1400FFF7BAFA001B0228F5D9032059E0314A2C
:101C2400D36923F08053D361DCE72F4B00221A6081
:101C3400FFF7AAFA05462B4B1B6813F0007F06D06A
:101C4400FFF7A2FA401B0228F5D9032041E0236ADA
:101C5400B3F5803F1AD023494B6823F47413226AE6
:101C6400606A024313434B601F4B01221A60FFF763
:101C74008BFA04461B4B1B6813F0007F0ED1FFF751
:101C840083FA001B0228F5D9032022E0154A536881
:101C940023F40033A1680B435360DCE7002018E011
:101CA400002016E0012B16D00E4B5B6803F4803144
:101CB400226A914211D103F47013626A93420ED1E5
:101CC400002006E001207047012002E0012000E02E
:101CD400002002B070BD0120FBE70120F9E70120DC
:101CE400F7E700BF00100240600042420F4B5B6800
:101CF40003F00C02082A01D00D487047C3F3834255
:101D04000C498A5C13F4803F0BD0084B5B68C3F327
:101D140040430949CB5C064800FB02F0B0FBF3F0FA
:101D24007047064800FB02F0704700BF00100240F5
:101D340000127A00C84F0008D84F000800093D007F
:101D4400002800F0A08070B50D460446524B1B6875
:101D540003F007038B420BD24F4A136823F00703A7
:101D64000B431360136803F007038B4240F08D802C
:101D7400236813F0020F17D013F0040F04D0474A5E
:101D8400536843F4E0635360236813F0080F04D0EE
:101D9400424A536843F460535360404A536823F003
:101DA400F003A1680B435360236813F0010F31D093
:101DB4006368012B20D0022B25D0384A126812F018
:101DC400020F64D035494A6822F0030213434B6082
:101DD400FFF7DAF90646314B5B6803F00C036268DF
:101DE400B3EB820F16D0FFF7CFF9801B41F2883393
:101DF4009842F0D9032045E0284A126812F4003FC3
:101E0400E0D101203EE0254A126812F0007FD9D1CA
:101E1400012037E0204B1B6803F00703AB420AD9CB
:101E24001D4A136823F007032B431360136803F060
:101E34000703AB422DD1236813F0040F06D0174AD1
:101E4400536823F4E063E1680B435360236813F0A1
:101E5400080F07D0114A536823F46053216943EAF9
:101E6400C1035360FFF742FF0C4B5B68C3F30313DA
:101E74000B4AD35CD8400B4B18600B4B1868FFF728
:101E84004BF9002070BD012070470120FAE70120C2
:101E9400F8E70120F6E700BF0020024000100240EE
:101EA400B04F00083004002038040020014B1868AB
:101EB400704700BF3004002008B5FFF7F7FF044B5C
:101EC4005B68C3F30223034AD35CD84008BD00BF58
:101ED40000100240C04F000808B5FFF7E7FF044BAD
:101EE4005B68C3F3C223034AD35CD84008BD00BF78
:101EF40000100240C04F000870B582B00446036869
:101F040013F0010F34D03E4BDB6913F0805F47D1EF
:101F14003B4BDA6942F08052DA61DB6903F08053AB
:101F24000193019B0125374B1B6813F4807F39D043
:101F3400334B1B6A13F4407311D0626802F440728D
:101F44009A420CD02E4A136A23F440702E4901267B
:101F54000E6000260E60106213F0010F36D1284A7D
:101F6400136A23F4407361680B431362002D3ED15E
:101F7400236813F0020F06D0214A536823F4404328
:101F8400A1680B435360236813F0100F34D01C4A2C
:101F9400536823F4800361690B43536000202CE0F1
:101FA4000025C0E7174A136843F480731360FFF7F2
:101FB400EBF80646134B1B6813F4807FB8D1FFF788
:101FC400E3F8801B6428F5D9032016E0FFF7DCF85A
:101FD40006460B4B1B6A13F0020FC0D1FFF7D4F86F
:101FE400801B41F288339842F3D9032005E0D3697A
:101FF40023F08053D361BBE7002002B070BD00BF63
:1020040000100240007000404004424230B4056AAF
:10201400026A22F0010202624268846924F07304B5
:102024000B681C4325F002058B682B43104DA84216
:1020340003D005F50065A84205D123F00803CD6857
:102044002B4323F004030A4DA84203D005F5006591
:10205400A84205D122F440724D6915438A692A4386
:10206400426084614A684263036230BC704700BFC7
:10207400002C014030B4036A026A22F480720262C6
:102084004268C46924F073040D682C4323F400737C
:102094008D6843EA0523124DA84203D005F5006577
:1020A400A84206D123F40063CD6843EA052323F450
:1020B40080630B4DA84203D005F50065A84207D103
:1020C40022F440524D6942EA05128D6942EA051232
:1020D4004260C4614A68C263036230BC704700BF97
:1020E400002C014030B4036A026A22F48052026276
:1020F4004468C26922F4E6420D6842EA052223F4E8
:1021040000538D6843EA0533094DA84203D005F511
:102114000065A84204D124F480444D6944EA85143E
:102124004460C2614A680264036230BC704700BF05
:10213400002C0140704700000368244A904212D0EA
:1021440002F5006290420ED0B0F1804F0BD0A2F5A0
:102154009832904207D002F58062904203D002F593
:102164008062904203D123F070034A681343174AF4
:10217400904212D002F5006290420ED0B0F1804F2E
:102184000BD0A2F59832904207D002F580629042BB
:1021940003D002F58062904203D123F44073CA68ED
:1021A400134323F080034A69134303608B68C362BB
:1021B4000B688362054B984203D003F50063984291
:1021C40001D10B690363012343617047002C014073
:1021D40040B310B5044690F83D30F3B1022384F8BF
:1021E4003D30214651F8040BFFF7A6FF012384F884
:1021F400463084F83E3084F83F3084F8403084F828
:10220400413084F8423084F8433084F8443084F810
:10221400453084F83D30002010BD80F83C30FFF795
:1022240089FFDBE70120704740B310B5044690F8FE
:102234003D30F3B1022384F83D30214651F8040BBC
:10224400FFF77AFF012384F8463084F83E3084F89F
:102254003F3084F8403084F8413084F8423084F8C8
:10226400433084F8443084F8453084F83D3000200D
:1022740010BD80F83C30FEF7A5FDDBE70120704778
:1022840030B4036A026A22F010020262446882696E
:1022940022F4E6420D6842EA052223F020038D6809
:1022A40043EA0513114DA84203D005F50065A84281
:1022B40006D123F08003CD6843EA051323F04003DD
:1022C4000A4DA84203D005F50065A84207D124F4BD
:1022D40040644D6944EA85048D6944EA8504446098
:1022E40082614A688263036230BC7047002C0140FB
:1022F40090F83C30012B28D010B50446012380F817
:102304003C300C2A1CD8DFE802F0071B1B1B0C1BFB
:102314001B1B111B1B1B16000068FFF777FE002018
:102324000FE00068FFF7ACFF00200AE00068FFF749
:10233400A1FE002005E00068FFF7D4FE002000E0C5
:102344000120002384F83C3010BD0220704738B5CA
:1023540090F83C30012B66D004460D46012380F8EA
:102364003C300C2A5AD8DFE802F0075959591B5956
:1023740059593059595944000068FFF747FE2268FB
:10238400936943F0080393612268936923F004037B
:1023940093612268936929690B43936100203EE0AD
:1023A4000068FFF76DFF2268936943F4006393614B
:1023B4002268936923F4806393612268936929698D
:1023C40043EA01239361002029E00068FFF752FEED
:1023D4002268D36943F00803D3612268D36923F0E8
:1023E4000403D3612268D36929690B43D3610020B4
:1023F40015E00068FFF776FE2268D36943F40063B2
:10240400D3612268D36923F48063D3612268D369DA
:10241400296943EA0123D361002000E0012000235D
:1024240084F83C3038BD0220FCE710B401F01F01F1
:10243400012303FA01F4036A23EA04030362036A2F
:1024440002FA01F10B43036210BC704710B5044655
:10245400084600293AD194F83E30DBB2013B18BF5C
:102464000123002B66D1002849D1022384F83E3091
:10247400012201462068FFF7D8FF23682F4A9342C0
:1024840003D002F50062934203D15A6C42F4004235
:102494005A642368294A934241D002F50062934268
:1024A4003DD0B3F1804F3AD0A2F59832934236D062
:1024B40002F58062934232D002F5806293422ED0BC
:1024C4001A6842F001021A60002032E0042908D0A0
:1024D40008290DD094F84130DBB2013B18BF012329
:1024E400BFE794F83F30DBB2013B18BF0123B8E7E4
:1024F40094F84030DBB2013B18BF0123B1E7042854
:1025040005D0082807D0022384F84130B0E702231D
:1025140084F83F30ACE7022384F84030A8E79A6897
:1025240002F00702062A07D01A6842F001021A6074
:10253400002010BD0120FCE70020FAE7002C014038
:1025440090F83C30012B33D030B4012380F83C3078
:10255400022380F83D3003685C689D6824F07004B1
:102564000A6822435A600368124A934212D002F561
:10257400006293420ED0B3F1804F0BD0A2F5983293
:10258400934207D002F58062934203D002F5806241
:10259400934204D125F080054A6815439D600123C8
:1025A40080F83D30002380F83C30184630BC70473A
:1025B40002207047002C014090F83C30012B22D0BF
:1025C400012380F83C30CB6823F440738A681343BA
:1025D40023F480634A68134323F400630A681343B3
:1025E40023F480530A69134323F400534A691343C1
:1025F40023F48043CA69134302685364002380F8B8
:102604003C301846704702207047000010B504465D
:102614000268136923F44053C1680B431361836850
:102624000269134342691A430168CB6823F4B05327
:1026340023F00C031343CB600268536923F4407303
:1026440081690B4353610268124B9A421FD0FFF712
:1026540033FC00EB800303EB830362689200B3FB5B
:10266400F2F20D48A0FB02314909642303FB112354
:102674001B013233A0FB03235B0903F0F00202EBDE
:10268400011203F00F03216813448B6010BDFFF7A0
:1026940023FCDEE7003801401F85EB512DE9F843A8
:1026A40005460F4616469946DDF820802C682468B6
:1026B40037EA04030CBF01240024B4422DD1B8F13D
:1026C400FF3FF3D0B8F1000F05D0FEF75DFDA0EB9E
:1026D40009004045EAD92A6802F10C0353E8003F97
:1026E40023F4D0730C3242E800310029F3D12A6874
:1026F40002F1140353E8003F23F00103143242E8CB
:1027040000310029F3D1202385F8413085F8423087
:10271400002385F84030032000E00020BDE8F88362
:1027240060B310B5044690F8413013B3242384F801
:1027340041302268D36823F40053D3602046FFF766
:1027440065FF2268136923F4904313612268536977
:1027540023F02A0353612268D36843F40053D360FF
:1027640000206064202384F8413084F842306063A0
:1027740010BD80F84030FEF76DFCD7E701207047AC
:102784002DE9F04182B01E4690F84130DBB2202B97
:102794004BD104460D46904600294AD00AB901207F
:1027A40044E000234364212380F84130FEF7ECFC2D
:1027B4000746A4F82480A4F82680A368B3F5805FB4
:1027C40002D04FF000080FE02369FBB14FF000087E
:1027D4000AE038F8023B2268C3F308035360E28C32
:1027E40092B2013A92B2E284E38C9BB28BB100962E
:1027F4003B46002280212046FFF750FFD8B9002D28
:10280400E7D015F8012B23685A60E8E7A8460025AD
:10281400EAE700963B46002240212046FFF73EFFB0
:1028240058B9202384F8413000E0022002B0BDE80A
:10283400F0810120FAE70320F8E70320F6E700001F
:1028440008B50A480A4B03604FF4E13343600023A0
:102854008360C36003610C2242618361C361FFF73B
:102864005FFF00B1FEE7002008BD00BF9405002013
:102874000038014000487047DC05002000487047DC
:10288400DC41002008B501F077F901F003F801F00C
:1028940081F908BD10B5FEF765FCFEF7CBF9FEF72C
:1028A40047FAFFF703FB094BA3FB00308009FEF74F
:1028B400CDFE01F02BF8FFF7DDFF0446FFF7DEFF46
:1028C4000146204601F0C6FC10BD00BFD34D621086
:1028D400F0B583B005460D238DF8073000240F4B67
:1028E40083F8404001F070FA07460DE001231A46D0
:1028F4000DF107010948FFF743FF01231A4631464A
:102904000648FFF73DFF0134BC4204D22E192B5D6B
:102914000A2BF2D1EAE703B0F0BD00BF9405002012
:1029240008B5084B1B681A6812F0200F03D05868CA
:10293400C0B2C0B208BD0A2002F088F84FF0FF30E0
:10294400F7E700BF9405002008B5024801F0D8FB62
:10295400002008BDDC4F000838B50546046803E0D4
:10296400074801F0CDFB2468AC4208D0A4F114015F
:10297400044801F0C5FB2368AB42F1D1F3E738BD4D
:10298400F44F0008F04F000808B501F0CFFB002019
:1029940008BDF8B500230B61CB684BB304460E4663
:1029A4000B7A3BB30F68B0B10025FDF75DFC35B978
:1029B40014F8043C23F08003327A93420ED17368F6
:1029C40000252468A7420DD0013543F8044BF26872
:1029D400AA42F6D107E03C460125E6E7FDF748FCAC
:1029E400002403E00024FDF743FC35612046F8BDD4
:1029F4000024FBE70024F9E7F8B504460D46174622
:102A04001E46084601F058FD0430206025726760B8
:102A1400E66000232361F8BD2DE9F043AFB008233D
:102A240021AA012129A8FFF7E7FF434A08214348C7
:102A340001F066FB4FF0080803E0414801F060FB39
:102A4400A04608F1FF34B8F1000FF6D13D4801F07B
:102A540057FB002765E07822494603A8FDF7B0FE3E
:102A64003046FDF705FC94F829300093A4F10C03DB
:102A740008221146344801F043FB94F8283003F04F
:102A84000F03012B09D0022B0BD073B1042B10D0F0
:102A9400032B12D0E069034614E02C4801F030FB0C
:102AA400F8E72B4801F02CFBF4E72A4801F028FB57
:102AB400F0E7294801F024FBECE7284801F020FB6B
:102AC400E8E701331A78232AFBD0226A2169411AE4
:102AD400C31A1344642000FB03F3606A0190606B23
:102AE4000090B3FBF2F311441D4801F009FB0135DA
:102AF4002D9BAB4214DD2EAB03EB850353F8344C12
:102B0400A4F10C09FDF7B0FB064614F8043C23F0CD
:102B140080039DF8AC2093429DD0FDF7A9FBE6E726
:102B240037B129A93846FFF734FF07464546DFE7A2
:102B340000202FB0BDE8F083F84F000800500008D3
:102B44004450000848500008885000089450000879
:102B5400A0500008AC500008B8500008C450000849
:102B6400D05000082DE9F04190B0082303AA0221B7
:102B74000BA8FFF741FF344A0821344801F0C0FA9A
:102B84004FF0080803E0324801F0BAFAA04608F111
:102B9400FF34B8F1000FF6D12E4801F0B1FA002746
:102BA40046E0FDF765FB01350F9BAB423FDD10AB03
:102BB40003EB850353F8346CFDF756FB16F8043C1D
:102BC40023F080039DF834209342EAD1FDF750FBB3
:102BD40006F10804B3689C4217D0A6F10C03308AAE
:102BE400224600211268944201D00131FAE7019192
:102BF400009008221146184801F082FA2046FFF797
:102C0400ABFE164801F07CFACDE7A6F10C03308A3E
:102C14002246002100E0013112689442FBD1019167
:102C24000090082211460E4801F06AFABBE737B15A
:102C34000BA93846FFF7ADFE07464546B4E700202A
:102C440010B0BDE8F08100BFF8500008045100083E
:102C540044500008205100083851000888570008E3
:102C640048510008F0B591B0082303AA0A210BA823
:102C7400FFF7C2FE294A0821294801F041FA082732
:102C840003E0284801F03CFA27467C1E002FF8D1C7
:102C9400254801F035FA00262FE0FDF7E9FA013462
:102CA4000F9BA34228DD10AB03EB840353F8345C81
:102CB400FDF7DAFA15F8043C23F080039DF834207C
:102CC4009342EAD1FDF7D4FAEB690193AB6900931F
:102CD400A5F10C0308221146144801F011FA15F865
:102CE400033C13F0010F03D0114801F009FAD6E7B1
:102CF400104801F005FAD2E736B10BA93046FFF7C8
:102D040048FE06463C46CBE700F0BEFD01460A48B5
:102D140001F0F6F9002011B0F0BD00BF58510008D1
:102D2400605100084450000888510008AC51000864
:102D3400C4510008D0510008E051000838B50D48CE
:102D440001F0DEF90C4B1C6800E00C340B4B1B68E3
:102D5400A3420DD92568022209492846FDF724FE1D
:102D64000028F2D062682946064801F0C9F9ECE768
:102D7400002038BDF8510008DC410020E04100206B
:102D84000C520008105200080346027862B110B4D5
:102D94000C7834B1A24204D1013301311A78002AEB
:102DA400F6D1181A10BC7047001A704770B5164651
:102DB40000252B464DE08B4208D2002200F8012B5F
:102DC40001330478202CF6D0092CF4D0072D07D831
:102DD4008B4215D2222C15D046F8250001352FE060
:102DE4001D4801F08DF9002405E056F824101B4815
:102DF40001F086F90134A542F7D8194801F080F9A9
:102E0400284670BD0130013346F82500013501E044
:102E1400013001330278222A09D08B4207D25C2A7E
:102E2400F6D14278222AF3D101300133F0E78B4204
:102E3400E6D2002200F8012B01330AE0013001330D
:102E44000278202A03D0092A01D08B42F6D38B4280
:102E5400D6D28B42B5D3D3E7A0530008C0530008A1
:102E64008857000838B50F4801F04AF90E4B1C6822
:102E740000E00C340D4B1B68A3420DD925680622D3
:102E84000B492846FDF790FD0028F2D16268A91D80
:102E9400084801F035F9ECE7074801F031F9002062
:102EA40038BD00BFC4530008DC410020E0410020CD
:102EB400E0530008E853000888570008F8B50746AF
:102EC4000E460F4B1C6800E00C340E4B1B68A342EB
:102ED40014D9256806220C492846FDF765FD00280B
:102EE400F2D132463946A81DFDF75EFD0028EBD12C
:102EF400B31DEB5C002BE7D1A06800E00020F8BD17
:102F0400DC410020E0410020E053000808B5FFF751
:102F140083FD002008BD08B501F07EF9002008BD3E
:102F2400F0B589B004460D461646002100E0013193
:102F3400635C202B03D0092B01D0A942F7D3A9B19C
:102F44002046FFF7BBFF074698B1202200216846C0
:102F5400FDF7ACFC6A4629462046FFF727FF58B127
:102F64006946B8473060002009B0F0BD4FF0FF302B
:102F7400FAE74FF0FF30F7E74FF0FF30F4E70120B6
:102F84007047000010B582B0044601E001340139F5
:102F940021B12378202BF9D0092BF7D011B90020C7
:102FA40002B010BD01AA2046FFF7BAFF08B9019884
:102FB400F6E722461378202B02D00BB10132F9E751
:102FC400002313702146034801F09AF84FF0FF30B4
:102FD400E6E700BFF45300082DE9F843037833B162
:102FE4000646214B1D684FF00008474612E00021B9
:102FF4000846FFF737FF34E021464046FFF7C4FE9A
:103004008146874200DCB9462146184801F078F829
:103014004F460C35164B1B68AB421AD92C68062256
:1030240014492046FDF7C0FC0028F2D1063430468E
:10303400FDF78CFC024621463046FDF7B5FC00281E
:10304400E7D1002FD8D12046FDF780FC0746A046E3
:10305400D2E7B8F1000F04D03A464146304600F0BA
:103064009FFEBDE8F88300BFDC410020F053000858
:10307400E0410020E053000808B5FFF751FC08BD0B
:10308400174B1B6893F8213013F0020F09D010B5C9
:10309400144B196851B180221348FDF7D5FC12482E
:1030A40010BD114B00221A700F487047FFF767FFDD
:1030B40068B10D4B0D4A92E80300186019710A4C6F
:1030C4002046FDF743FC0A4B1B882352E7E7064BD7
:1030D400084A92E8030018609980090C9971EEE798
:1030E4007442002070420020EC4100208C540008FF
:1030F4009C5400089454000810B50446094800F094
:10310400FFFFFFF73CFF012807D0FFF7B9FF014697
:103114002246054800F0F4FF10BD2046FFF75CFF8F
:10312400F3E700BF88570008A054000838B5AA4B3D
:103134001A6892F8213043F0010382F82130FFF736
:103144009FFF00F0DDFF04E0A34B1B68012283F81E
:103154002020FFF791FF041EFBDB1B2CF4D09E4BB9
:103164001B6893F82020012A40D0022A48D0002C62
:10317400EFD0FF2CEDD0092C00F089807F2C00F0DB
:103184008880082C00F085800D2C00F0C9800A2C62
:1031940000F0C680B3F872204F2A02D90022A3F8A7
:1031A4007220B3F87450B3F872209542C0F0E180F5
:1031B4001A4482F8224093F8213013F0010F40F0B2
:1031C4000681854B1A68B2F8723001339BB2A2F8BB
:1031D4007230B2F874100131A2F874104F2BB8D9C0
:1031E4000023A2F87230A2F87430B2E75B2C03D04B
:1031F400002283F82020BAE7022283F82020A8E7DF
:10320400002283F82020412CA3D0422CA1D0442CAE
:1032140015D0432CABD1B3F87420B3F872108A42A2
:1032240097D2134493F822106C4800F069FF6A4B5C
:103234001A68B2F874300133A2F8743089E7B3F82D
:103244007430002B85D0664800F05AFF624B1A6830
:10325400B2F87430013BA2F874307AE7604800F0A9
:103264004FFF01345C4B1868B0F87430A342F5DCAE
:103274002230FFF741FF584B1C6804F12200FDF790
:1032840065FB80B2A4F87200A4F8740061E700241E
:10329400E8E7B3F8741000293FF45BAFB3F8722089
:1032A400013A92B2A3F87220013989B2A3F87410DA
:1032B4008A420BD84B4800F023FF474B1B68B3F8F6
:1032C40072201344002283F8222042E701F12000F7
:1032D400184401F121042344521A991C023000F0CD
:1032E40042FD3D4C2368B3F872201A44002182F851
:1032F4002210B3F8742020321344991C3A4800F089
:10330400FFFE2368B3F8744003E0354800F0F8FE8C
:103314000134314B1B68B3F87230A342F5DA18E775
:10332400FFF72DFE012811D0FFF7AAFE00F0E8FEFA
:10333400294B1C685022002104F12200FDF7B6FA43
:103344000023A4F87230A4F8743002E7224B1B68FF
:1033540093F8213013F0010F07D11F4B1868B0F810
:1033640072102230FFF70EFEDEE7204800F0C8FEA0
:10337400F3E705F12100184405F120011944521B1B
:103384000231023000F0EFFC134B1B68B3F87420D9
:10339400991881F8224093F8211011F0010F04D1FB
:1033A4000D4B1B68B3F874400AE020321344991C97
:1033B4000F4800F0A5FEF3E7094800F0A1FE013430
:1033C400054B1B68B3F87230A342F5DCF9E62146DD
:1033D400024800F095FEF4E674420020AC54000864
:1033E400A8540008B8540008B054000888570008CE
:1033F400F04F0008044B1B6893F8212060F341024E
:1034040083F82120704700BF74420020024B1860EB
:10341400024B1960704700BFDC410020E0410020EE
:10342400024B1860024B1960704700BFE441002052
:10343400E841002010B582B019491A48FFF7E6FFA9
:1034440019491A48FFF7ECFF7821012000F0D2FF58
:10345400174B1860E0B10A230193152300934FF42E
:10346400806300221349144801F04EFA04460023F5
:103474001A4612490E48006800F0E0FA0120FFF7EE
:10348400B9FF5CB1204601F00AFB002002B010BD78
:103494000B4800F035FE4FF0FF30F7E70020F5E76A
:1034A4008C4F0008E44E00088C4F00088C4F000835
:1034B4007442002031310008D4540008DC54000860
:1034C400BC54000810B5214800F01AFE204C2178A5
:1034D400204800F015FE237813F0010F1CD11C4B7B
:1034E4001B7813F0020F1BD1194B1B7813F0040F38
:1034F4001AD1174B1B7813F0080F19D1144B1B78F2
:1035040013F0100F18D1124B1B7813F0800F17D142
:10351400114800F0F5FD10BD104800F0F1FDDEE7A4
:103524000F4800F0EDFDDFE70E4800F0E9FDE0E7AD
:103534000D4800F0E5FDE1E70C4800F0E1FDE2E7AD
:103544000B4B19680B4800F0DBFDE4E7E45400087A
:1035540029ED00E0F05400088857000808550008D9
:103564001455000820550008305500083C55000843
:1035740038ED00E04455000810B51D4800F0C0FDCA
:103584001C4C21781C4800F0BBFD237813F0010F7C
:1035940017D1184B1B7813F0020F16D1154B1B785B
:1035A40013F0080F15D1134B1B7813F0100F14D11F
:1035B400104B1B7813F0800F13D1104800F0A0FDBE
:1035C40010BD0F4800F09CFDE3E70E4800F098FDA5
:1035D400E4E70D4800F094FDE5E70C4800F090FDA9
:1035E400E6E70B4B19680B4800F08AFDE8E700BFDB
:1035F4005455000828ED00E0685500088857000875
:10360400805500088C55000898550008A4550008FA
:1036140034ED00E0B055000810B5214800F070FD0D
:10362400204C218889B2204800F06AFD238813F0D9
:10363400010F1CD11B4B1B8813F0020F1BD1194B1C
:103644001B8813F0040F1AD1164B1B8813F0080FB4
:1036540019D1144B1B8813F4807F18D1114B1B888C
:1036640013F4007F17D1114800F04AFD10BD104833
:1036740000F046FDDEE70F4800F042FDDFE70E48AC
:1036840000F03EFDE0E70D4800F03AFDE1E70C48AC
:1036940000F036FDE2E70B4800F032FDE3E700BF3F
:1036A400C05500082AED00E0D055000888570008EE
:1036B400E8550008F45500080056000808560008AC
:1036C400105600081C56000808B5154B1B6813F06B
:1036D400020F13D1124B1B6813F0804F09D0114B0A
:1036E4001B787BB9104B1B787BB9104B1B889BB2A2
:1036F40073B90B4B1B68002B0DDB08BD0C4800F0A5
:10370400FFFCE7E7FFF7DEFEECE7FFF735FFECE74A
:10371400FFF782FFEDE7074800F0F2FCEDE700BF9A
:103724002CED00E029ED00E028ED00E02AED00E0BA
:10373400285600084056000870B40646043222F0A9
:103744000705A5F1400000220F2A04D80C4C40F8CC
:1037540022400132F8E745F8201C002245F81C2CD1
:1037640045F8182C45F8142C45F8102C45F80C3C59
:1037740045F8086C4FF0807345F8043C70BC704702
:10378400EFBEADDE10B504462C4B1B6813B1984751
:10379400002852D0216C2A4800F0B2FC616A294802
:1037A40000F0AEFCA16A284800F0AAFCE16A2748B0
:1037B40000F0A6FC216B264800F0A2FC61682548B5
:1037C40000F09EFCA168244800F09AFCE1682348BC
:1037D40000F096FC2169224800F092FC61692148BE
:1037E40000F08EFCA169204800F08AFCE1691F48C2
:1037F40000F086FC216A1E4800F082FC616B1D48C3
:1038040000F07EFCA16B1C4800F07AFCE16B1B48C5
:1038140000F076FC236813F0040F0AD001F06EF870
:103824000146174800F06CFCFFF7F6F8FFF74CFF71
:10383400FEE7144800F064FCF8E710BD784200206D
:10384400505600086056000870560008805600085C
:1038540090560008A0560008B0560008C05600084C
:10386400D0560008E0560008F0560008005700083B
:103874001057000820570008305700084057000828
:103884005057000870570008014B1868704700BF74
:103894008842002008B5094A13680133136001F017
:1038A4002DF8036C013B036413B101F001FA08BD68
:1038B400C36B036401F050F8F7E700BF88420020AF
:1038C400021E15DB0C4880FB0213D117C1EBA311B8
:1038D4004FF47A7303FB01F1521A03FB02F303F270
:1038E400E73380FB0302D817C0EBA21008447047EB
:1038F4004FF0FF30704700BFD34D62100020704777
:1039040000207047002070470020704710B5044C19
:10391400044B9C4203D254F8043B9847F8E710BD8B
:10392400904F0008984F000810B5044C044B9C427B
:1039340003D254F8043B9847F8E710BD984F0008A9
:10394400A84F000808B5FFF7EFFFFDF7B5F908BD6C
:1039540000B583B0142301930A2300934FF48063CA
:1039640000220449044800F0CFFF01F098F803B0A6
:103974005DF804FB493900088C57000808B5FCF7CA
:1039840073FCFEF787FF00F0D1FB01F0F9F900F0BA
:1039940023FEFFF7DDFF01F001FA00F02FF800F03D
:1039A40041FE002008BD08B5FFF7E8FF002008BD70
:1039B40038B5FCF759FC04460D4B1A689A4214D0EA
:1039C4000B4B1B681D4655F814195A684A60196850
:1039D40011605B601B60586900F01AFD284600F016
:1039E400DEFD2046FCF744FCE3E7FCF741FC38BD70
:1039F400CC44002008B5FFF7DBFFFCE710B584B02A
:103A04000A4C202303931F2302934FF480730193E2
:103A1400074B00930023074A0749204600F052FF52
:103A2400204601F03CF804B010BD00BF8C420020D9
:103A340004430020F93900089457000870B504467F
:103A440016461D460A46022100F048FD04F11403FF
:103A5400A3616361A6836572002070BD2DE9F04106
:103A640082B004460191FCF7FFFB0746A38BF3B930
:103A7400019B13B300F042FF06460023036304F1E5
:103A8400140594F8098000F095FFB8F1000F19D0DF
:103A9400B8F1010F1FD0019B002B3ADC3846FCF72C
:103AA400E7FB00F0D7FD306B02B0BDE8F081013BCD
:103AB400A383FCF7DDFB0020F6E7FCF7D9FB6FF0EE
:103AC4000100F1E706F114036A6813606A68B261E1
:103AD4006B607561DFE763699D420FD096F835101E
:103AE40093F82120914201D31B68F5E706F11402F3
:103AF40059680A605968B1615A6073619D42CAD1BC
:103B040006F114036A6813606A68B2616B607561D8
:103B1400C1E706F1440401AA0021204601F09DF802
:103B2400204601F01BF8B9E738B50446FCF79CFBC6
:103B3400054604F11403606983420AD0143800F086
:103B44008BFF01242846FCF793FB012C10D0204660
:103B540038BDA38B4FF6FF72934203D00133A38386
:103B64000024EFE72846FCF783FB6FF00204EEE73E
:103B740000F070FD0024EAE708B5FCF775FB044A81
:103B840013780133DBB21370FCF772FB08BD00BF7E
:103B94000444002008B5FCF767FB044A1378013B92
:103BA400DBB21370FCF764FB08BD00BF04440020C3
:103BB4002DE9F04385B00D9E0E9F17F0400F19D0EC
:103BC400DFF84C9117F0100F01D027F0010717F020
:103BD400010F12D04FF0300C17F0020F14D0002A4E
:103BE4000EDB17F0040F26D117F0080F26D14FF083
:103BF400000E0BE0DFF81C91E4E74FF0200CEBE73C
:103C040052424FF02D0E01E04FF0000E8ABB3023DC
:103C14008DF800300124B4422DDC32460C9B9B1AF3
:103C240017F0110F33D1BEF1000F02D0002B00DDCD
:103C3400013B1D4623E04FF02B0EE7E74FF0200E2B
:103C4400E4E702F00F08120919F8088004AD2544CE
:103C540005F8108C0134002ADDD00A2BF1D12B4D4C
:103C6400A5FB0285ED0805EB8508A2EB48082A466A
:103C7400EAE70024EFE72246D0E701301D466B1E39
:103C8400002D04DD8842F8D220250570F5E7BEF149
:103C9400000F05D0884201D280F800E0013B0130DA
:103CA40017F0100F02D00DE001302B465D1E002BE3
:103CB40004DD8842F8D280F800C0F5E72B4601E025
:103CC40001302A46551EA24206DD8842F8D230222F
:103CD4000270F5E701301446621E002C0ADD4EB175
:103CE4008842F7D204AC144414F8104C0470F1E781
:103CF400013013465A1E002B04DD8842F8D22023DB
:103D04000370F5E705B0BDE8F08300BFCDCCCCCCA3
:103D14002C5900084059000810B4032A1FD9CCB20A
:103D240010F0030F1DD144EA042444EA044403467A
:103D34000F2A09D91C605C609C60DC60103A103367
:103D4400F6E743F8044B043A032AFAD802E003F8EE
:103D5400011B2246541E002AF9D110BC70470346A9
:103D6400F8E70346F6E710B4884215D98B18834266
:103D740014D98418511E6AB113F8012D04F8012DC9
:103D84000A46F7E711F8012B03F8012B2246541ECB
:103D9400002AF7D110BC70470346F8E70346F6E75C
:103DA4008AB130B4144603460D7801311D700133D5
:103DB4001DB1013CF8D130BC7047013CFBD000225E
:103DC40003F8012BF9E7704703461A780AB1013367
:103DD400FBE7181A704700002DE9F04186B006464B
:103DE4000F4614460593451802D3C7434FF0FF35D9
:103DF400304601E0013001342378002B00F071815A
:103E0400252B03D0A842F5D20370F3E7002102E08A
:103E140041F010011446621C63782D2BF8D02B2B33
:103E240008D0202B09D0232B0AD0302B0BD141F002
:103E34000101EFE741F00401ECE741F00801E9E793
:103E440041F02001E6E7A3F1300CBCF1090F14D9CD
:103E54002A2B21D04FF0FF3C13782E2B2AD04FF081
:103E6400FF3E92F80080B8F1680F4DD0B8F16C0FA6
:103E74004AD014464FF0000847E04FF0000C137886
:103E8400A3F13004092CE7D80CEB8C0C013203EBC2
:103E94004C0CACF1300CF2E7A21C059B1C1D0594E4
:103EA400D3F800C0BCF1000FD6DACCF1000C41F01D
:103EB4001001D1E7541C5378A3F1300EBEF1090F61
:103EC40018D92A2B19D022464FF0000EC9E70EEB61
:103ED4008E0E013403EB4E03A3F1300E2378A3F1CD
:103EE4003002092AF3D92246BEF1000FB9DA4FF0A5
:103EF400000EB6E74FF0000EF0E70232059B1C1DE2
:103F04000594D3F800E0EFE7541C2378252B00F048
:103F14009B80C0F0BD80782B00F2BA80582BC0F093
:103F2400B780583B202B00F2B380DFE803F0A9B13F
:103F3400B1B1B1B1B1B1B1B1B111ADB1B1B1B1AD15
:103F4400B1B1B1B1B19377B1B134B1C0B1B1C200C3
:103F540011F0100F09D0059B1A1D05921B78A84279
:103F640000D2037001300BE001300CF1FF3CBCF1D6
:103F7400000FF0DDA842F7D220230370F4E70130EC
:103F84000CF1FF3CBCF1000F7FF735AFA842F6D22D
:103F940020230370F3E7059B1A1D05921A680AB1E2
:103FA400002302E0554AFBE70133634504D012F8CD
:103FB4000380B8F1000FF7D1BEF1000F02DD7345A5
:103FC40000DD734611F0100F03D0002111E0013021
:103FD4008C460CF1FF31634506DAA842F7D24FF064
:103FE400200C80F800C0F2E78C46EEE70130013285
:103FF4000131994208DAA842F8D292F800E080F838
:1040040000E0F3E7013094460CF1FF326345BFF65C
:10401400F2AEA842F6D220210170F3E7BCF1FF3FD3
:104024000DD0059B1A1D05921A680291CDF804E083
:10403400CDF800C010232946FFF7BAFDDBE641F0B6
:1040440001014FF0080CECE7A84201D225230370CC
:104054000130D0E60823B8F16C0F2CD0B8F1680F0A
:1040640030D0059A02F10408CDF814801268029148
:10407400CDF804E0CDF800C02946FFF799FDBAE673
:1040840041F040011023E6E741F002010A23E2E790
:10409400A84201D225230370421C237823B1AA42EB
:1040A40000D243700230A6E6013C1046A3E60A2380
:1040B400D1E71023CFE7059A02F10408CDF8148064
:1040C4001268D4E7059A02F10408CDF81480D2F8F6
:1040D40000801FFA88F211F0020FC8D00FFA88F29C
:1040E400C5E717B1A84204D20370801B06B0BDE82F
:1040F400F081002305F8013CF7E700BF9C57000856
:104104000FB410B582B004AB53F8042B0193064CE2
:104114007F212046FFF760FE2046FEF7D9FB02B060
:10412400BDE8104004B070470844002000B583B0D7
:104134000948FFF7E5FF0948FFF7E2FF084B009342
:104144000523012203210748FFF7DAFF0648FFF79A
:10415400D7FF03B05DF804FBA4570008B05700086C
:10416400F4570008D457000800580008E8B110F0CC
:10417400FF020AD110F47F4F0BD110F47F0F0ED140
:10418400030E0A4AD05C19307047084B985C013022
:104194007047C0F30723054AD05C09307047C0F369
:1041A4000743024AD05C1130704770472C5800080E
:1041B400164B196842680A4490420FD053886BB971
:1041C400134B1B68934209D0124B1B68934216D0C1
:1041D4005368436053680B44421A9A6083680B44E3
:1041E40098420BD05A884AB90A4A1268824209D0C6
:1041F40042685A6042680A445B1A93607047054BF0
:104204001860E5E7034A1360F2E700BF8C4400201E
:1042140088440020B044002008B5084B19680848B9
:10422400FFF76EFF074B19680748FFF769FF074B55
:1042340019680748FFF764FF08BD00BFB8440020B1
:1042440054590008BC44002068590008B4440020B4
:104254007C59000870B50A4621F00303182B06D9CF
:10426400C41C24F00304A3F11801A14204D20146A2
:104274001148FFF745FF70BD1B1BA3F118010F4A3E
:1042840011600F4D2C604FF4F5522280A3F10C0104
:1042940061600023A360638060180A4E306062523C
:1042A400012242804160816007490848FFF7C6FB4C
:1042B4002A68074B1A60DEE7A4590008B8440020B6
:1042C4008C440020884400209C590008904400201D
:1042D400B044002000287AD0F8B50546033525F00F
:1042E40003053D4B1B689D4273D80B2D00D80C254C
:1042F4004FF0FF313948FFF7B1FB394B1E68394B9A
:104304001868331A1DE001236380231AFB1A364A06
:1043140011680B441360354A1268934247D9334AF3
:10432400136044E05B6803442D4A13602C4B1B6804
:104334005A88002A40D02E4A12689342F2D13BE0B8
:104344006368254A1268511B99423BD9C418618895
:104354000029F5D16768F91A0C39A942F0D305F19F
:10436400180C6145CFD3E9180C3100EB010C4FF464
:10437400F55747520027ACF802706768CCF8047010
:10438400CCF80830616001236380DCF804300C321F
:10439400934201D003449960134A13682B440C33AD
:1043A4001360124A1268934201D9104A13604FF401
:1043B400F5532380A642B9D00848FFF7B5FB04F1B2
:1043C4000C0003E00548FFF7AFFB0020F8BD002018
:1043D40070470020FAE700BFB84400209044002052
:1043E400B04400208C440020BC440020B44400208D
:1043F4008844002038B501FB00F42046FFF76AFF2B
:10440400054618B122460021FFF786FC284638BD30
:10441400002842D038B50446204B1B68834203D899
:104424001F4B1B68834200D838BDA0F10C054FF028
:10443400FF311C48FFF712FB34F80A3C23B134F86F
:104444000C3CB3F5F55F0AD01748FFF759FE34F872
:104454000C3C34F80A2C29461448FFF751FE00237B
:1044640024F80A3C4FF4F55324F80C3C104B1B6819
:10447400AB4201D90E4B1D60084B1B68EB1A54F874
:10448400081C0C4A5B1A11680B4413602846FFF79A
:104494008FFE0448FFF748FBC6E770478C440020B2
:1044A4008844002090440020E0590008FC5900088A
:1044B400B0440020BC440020002300E00133022B60
:1044C40007DC1A0104498A5C8242F7D101EB03102C
:1044D40070470020704700BF3C0400202DE9F041E4
:1044E40006460F4690460846FFF7E6FF054600F0ED
:1044F40035F96B682C1D9C4201D01B68FAE700F06B
:1045040039F967F07F073772082241463046FFF7D2
:1045140047FCFBF7A9FE06F10C036A6853606A685E
:10452400F2606B603461FBF7A3FEBDE8F08110B567
:10453400044600230372FBF797FE04F10C03E168C1
:1045440022694A60E16811602361E360FBF790FE31
:1045540010BDF8B507460E46FFF7AEFF0446C06827
:10456400FFF7B8FE0546C0B1E2680021FFF7D4FBAF
:104574002F7200236B72082231462846FFF710FC85
:10458400FBF772FE221D05F10C0361684B60616844
:10459400E96063602A61FBF76BFE2846F8BD10B53D
:1045A400044600230372FBF75FFE04F10C03E16889
:1045B40022694A60E16811602361E360FBF758FEF9
:1045C4002046FFF725FF10BD90F90830002B01DBD2
:1045D400002070470120704700230C4A13801F2BD2
:1045E40007DC0B4901EBC302526041F8332001336D
:1045F400F5E7084B1F221A700023074A1360074A85
:104604001360074B5B601B60704700BFC844002009
:10461400D4440020C0440020C4440020D4450020D9
:10462400CC44002008B5084B1868FFF79FFD0138FB
:10463400064B53F83000A0F11402054B1A60083001
:10464400FBF747FE08BD00BFD4450020D44400203A
:10465400C444002038B5FBF707FE0446144BB3F9F5
:104664000030C3B9134B1868FFF780FD431E124A8C
:1046740052F83310A1F114021048006890420AD095
:104684000F4D2B700D4B1A600E4B1B783BB108314C
:104694001C30FBF7F0FD2046FBF7EAFD38BD08317E
:1046A4001C30FBF7E8FD2046FBF7E2FDF6E700BF10
:1046B400C8440020D4450020D4440020C444002031
:1046C400C04400200444002010B50446FBF7CCFD90
:1046D40094F9343023F00F0343F0010384F83430A9
:1046E40094F83520094B03EBC20304F11402596812
:1046F4000A605968A1615A606361A16B044A136836
:104704000B431360FBF7B4FD10BD00BFD44400207D
:10471400D445002010B50446FBF7A6FD04F11403AC
:104724006169A2694A6061691160A361636194F877
:104734003520084B03EBC20153F83230994202D0C2
:10474400FBF796FD10BDA16B034A136823EA01032E
:104754001360F5E7D4440020D445002008B5FBF7E6
:1047640083FD034A138801331380FBF781FD08BDE1
:10477400C844002008B5FBF777FD0B4A1388013BBA
:104784001BB21380002B02DDFBF772FD08BD13463C
:1047940000221A80FBF76CFD044B1B68002BF5D03C
:1047A400FFF758FFF2E700BFC8440020C4440020CC
:1047B40038B50446FBF758FD0546236F0BB1204678
:1047C40098472846FBF754FD38BD000038B5144B14
:1047D4001C68FBF749FD05462046FFF7E9FF204624
:1047E400FFF798FF042384F8343004F1440000F008
:1047F40096F92046FFF7E8FE01280DD004F11402D3
:10480400084B19684A6061611A60A361FFF722FFCF
:104814002846FBF72DFD38BD2046FFF788FEF5E757
:10482400C4440020CC440020F0B583B004461746AD
:104834000898099A9DF828500B9E04F11401A1616F
:10484400616127626362A062E2622321FFF764FA76
:10485400A16AE36A1A1F104B0A44616A206AFEF7D0
:104864006BFFE06184F8365084F835500025A56369
:10487400E6632664256384F83450256765670195EB
:1048840000952346054A214604F1440000F033F91B
:10489400284603B0F0BD00BFD1470008A548000872
:1048A40010B56FF00102026300F1140244698169DA
:1048B400616044690C6082614261FFF705FFFFF7A4
:1048C400C9FE10BDF0B585B005460C4616461F4618
:1048D4000A460121FFF702FE0D9B03939DF8303039
:1048E40002930B9B01930A9B00933B46324621465D
:1048F4002846FFF799FF05B0F0BD0000014B18688A
:10490400704700BFC44400202DE9F04385B004463D
:104914000F4690461D4601460120FFF71AFE064643
:1049240088B12846FFF7D6FC814680B10D9B0393DE
:104934009DF8303002930195009043463A46214653
:104944003046FFF771FF304605B0BDE8F0833046CE
:10495400FFF725FE4E46F6E710B5FBF785FC134B33
:104964001B6893F8342002F00F02012A03D159691D
:104974009A69914203D1FBF77BFC002010BD03F13F
:1049840014044A60596911609C615C6193F83510A4
:10499400074A02EBC10251680C6051689961546086
:1049A4005A61FBF765FCFFF755FEE6E7C4440020B7
:1049B400D444002038B590F8343003F00F03012BB1
:1049C40017D10446FBF750FC05462046FFF7A2FE2C
:1049D40094F9343023F00F0343F0020384F83430A5
:1049E40004F1440000F016F92846FBF741FC0020CE
:1049F40038BD4FF0FF30FBE770B582B00190FBF794
:104A040033FC05460E4B1C682046FFF7D3FF04F128
:104A1400440601AA0021304600F01FF9304600F098
:104A24009DF82846FBF724FCFFF714FE236B13F1D3
:104A3400020F02D0002002B070BD00232363F9E707
:104A4400C444002008B5FFF7D7FF08BD08B5FEF73A
:104A540037FFFFF7D1FF08BD38B590F8343003F0C5
:104A64000F03022B18D10446FBF7FEFB054604F1A5
:104A740014036169A2694A6061691160A361636199
:104A840004F1440000F0C6F82846FBF7F1FB204689
:104A9400FFF71AFE002038BD4FF0FF30FBE708B5E2
:104AA40090F8361080F8351001228A408263022281
:104AB40080F83420FFF7D0FFFFF720FF08B1FFF79D
:104AC400C9FD002008BD10B49DF8044024F0010481
:104AD4004472C16102620022826243621346002B67
:104AE40001DD10BC70479A1C00EBC202111D9160DD
:104AF40051600133F3E770B582B0044615461E4693
:104B04000A460A21FFF7EAFC9DF81C300093069B35
:104B1400324629462046FFF7D6FF02B070BD70B575
:104B24000446FBF7A1FB0022002A0ADD637A23F086
:104B340001036372FBF79CFB2046FFF7F8FC00209F
:104B440070BD931C04EBC303191D5E689D687560FA
:104B54005E682E60996059600132E5E770B582B0F5
:104B64000446FBF781FB05460022002A23DD637A15
:104B740023F001036372FEF787FE636A1844A062A0
:104B8400224B0193002242B3214A1368013313607C
:104B9400019B04F1140219684A60196861611A6082
:104BA400A361637A43F0010363722846FBF760FB59
:104BB400002002B070BD931C04EBC303191D5E6892
:104BC400986870605E680660996059600132CCE74D
:104BD40002AB03EB820343F8041C02AB03EB820336
:104BE40053F8046CD300094901EBC20149688E42B1
:104BF4000AD031681433CB1A9B6A9842E8D01B1A46
:104C04006FF00046B342E3D20132BCE7DC4500203A
:104C1400D8450020437A13F0010F02D14FF0FF3042
:104C2400704770B50446FBF71FFB0022002A07DD1E
:104C3400637A23F001036372FBF71AFB002070BD53
:104C4400931C04EBC303191D5E689D6875605E6860
:104C54002E60996059600132E8E770B505460C464C
:104C64001646FBF701FB042C06D8DFE804F0090321
:104C74000C1116006B6A3360FBF7FAFA002070BD62
:104C840033686B62F8E76B7A23F002036B72F3E725
:104C94006B7A43F002036B72EEE76B7A13F0010F49
:104CA40002D001233360E7E700233360E4E7000028
:104CB4002DE9F04182B0CDF804D0CDF800D0FEF754
:104CC400E3FD0746FBF7D0FA05462C4B1C689C42D3
:104CD40005D12846FBF7CCFA02B0BDE8F081A4F177
:104CE40014066069381A6FF000439842F1D200212B
:104CF40014E0A4F114028B1C02EBC302043204EB93
:104D0400C30353F8107C53F80C0C786053F8107CF0
:104D1400076043F80C2C43F8102C01310029E8DD1E
:104D240014F80B3C13F0020F03D123F0010304F831
:104D34000B3C009B5C6023600094E846C4F804804C
:104D4400A368E0689847FEF79FFD0746009B43452C
:104D5400BBD022686368536022681A606460246070
:104D640014F80B3C03F00302032AAED123F0010331
:104D740004F80B3C3046FFF7F1FEA6E7DC450020C3
:104D8400002303B17047044901EBC302526041F8A8
:104D940033200133F5E700BFDC45002070470000F5
:104DA40010B5FCF7FBF808210848FDF74FFB40F26B
:104DB400E73402E06420FFF745FE044B1B68DC6324
:104DC400323CF7D540F2E734F4E700BF0005002099
:104DD40000B583B014230193052300934FF40073AB
:104DE40000220A490A48FFF78FFD40B1FFF757FE3A
:104DF4000848FFF785F9002003B05DF804FB064876
:104E0400FFF77EF94FF0FF30F6E700BFA54D00082D
:104E1400585A00085C5A0008745A000800B583B058
:104E240014230193022300934FF4007300220A49D0
:104E34000A48FFF769FD40B1FFF731FE0848FFF764
:104E44005FF9002003B05DF804FB0648FFF758F94A
:104E54004FF0FF30F6E700BF6D4E0008905A00088F
:104E6400945A0008AC5A000810B5FBF759FE0E4CD2
:104E74002046FCF773FA2046FCF78CF984B22046EE
:104E8400FBF7DCFB4FF06651FBF76EFA0749FBF7C3
:104E94006BFAFBF72BFC024621460548FFF730F975
:104EA4003220FFF7CFFDE2E7880400200000A5438D
:104EB400C85A0008024B13B10248FBF73DBC7047C7
:104EC4000000000049070008F8B500BFF8BC08BCA2
:104ED4009E467047F8B500BFF8BC08BC9E467047B4
:104EE4003C52000820520008412D00085C52000882
:104EF40044520008692C00088852000870520008C7
:104F0400692C0008B052000894520008692B00086C
:104F1400DC520008C0520008692B0008F452000853
:104F2400E85200081D2A000814530008085300081A
:104F34001D2A000848530008205300088D29000842
:104F440080530008585300088D290008985300081E
:104F5400885300084D290008345400080C540008F4
:104F64001B2F00085C54000840540008112F00084F
:104F74008054000868540008692E00084C5A000840
:104F84002C5A00081D4200080139000805390008A0
:104F9400452800080939000839340008214E000862
:084FA400D54D00080D3900088D
:104FAC0008000020000000000000000001020304C3
:104FBC0006070809000000000102030402030405AF
:104FCC00060708090A0B0C0D0E0F10100102000049
:104FDC0048656C6C6F2052542D5468726561642165
:104FEC000A000000257300002F0000007468726531
:104FFC0061640000252D2A2E7320707269202073A5
:10500C007461747573202020202020737020202060
:10501C002020737461636B2073697A65206D6178ED
:10502C002075736564206C656674207469636B20ED
:10503C00206572726F720A002D000000202D2D2D3C
:10504C0020202D2D2D2D2D2D2D202D2D2D2D2D2DAB
:10505C002D2D2D2D202D2D2D2D2D2D2D2D2D2D208E
:10506C00202D2D2D2D2D2D20202D2D2D2D2D2D2D8B
:10507C002D2D2D202D2D2D0A00000000252D2A2E42
:10508C002A73202533642000207265616479202006
:10509C00000000002073757370656E6400000000E2
:1050AC0020696E69742020200000000020636C6F62
:1050BC0073652020000000002072756E6E696E67AB
:1050CC0000000000203078253038782030782530EA
:1050DC0038782020202025303264252520202030CF
:1050EC00782530387820253033640A0073656D617B
:1050FC0070686F7265000000252D2A2E73207620B3
:10510C00202073757370656E6420746872656164B9
:10511C000A000000202D2D2D202D2D2D2D2D2D2D77
:10512C002D2D2D2D2D2D2D0A00000000252D2A2E84
:10513C002A7320253033642025643A00252D2A2E2D
:10514C002A7320253033642025640A0074696D6548
:10515C0072000000252D2A2E732020706572696F55
:10516C0064696320202074696D656F75742020203C
:10517C0020202020666C61670A000000202D2D2D58
:10518C002D2D2D2D2D2D2D202D2D2D2D2D2D2D2D50
:10519C002D2D202D2D2D2D2D2D2D2D2D2D2D0A0090
:1051AC00252D2A2E2A732030782530387820307817
:1051BC00253038782000000061637469766174656D
:1051CC00640A000064656163746976617465640ADD
:1051DC000000000063757272656E74207469636BF5
:1051EC003A3078253038780A000000002D2D4675AD
:1051FC006E6374696F6E204C6973743A0A00000018
:10520C005F5F0000252D313673202D2D2025730A6C
:10521C00000000006C69737420616C6C2073796DF4
:10522C00626F6C20696E2073797374656D00000079
:10523C006C697374000000006C6973742074696D80
:10524C00657220696E2073797374656D00000000BF
:10525C005F5F636D645F6C6973745F74696D6572B5
:10526C00000000006C6973742074696D65722069AC
:10527C006E2073797374656D000000006C69737433
:10528C005F74696D657200006C6973742073656D71
:10529C006170686F726520696E2073797374656DC7
:1052AC00000000005F5F636D645F6C6973745F7313
:1052BC00656D00006C6973742073656D6170686F47
:1052CC00726520696E2073797374656D000000003F
:1052DC006C6973745F73656D000000006C697374A6
:1052EC0020746872656164005F5F636D645F6C69F4
:1052FC0073745F7468726561640000006C69737428
:10530C0020746872656164006C6973745F74687290
:10531C006561640073686F77205254202D205468A7
:10532C00726561642076657273696F6E20696E6652
:10533C006F726D6174696F6E000000005F5F636D6A
:10534C00645F76657273696F6E00000073686F77C7
:10535C00205254202D205468726561642076657249
:10536C0073696F6E20696E666F726D6174696F6EB2
:10537C000000000076657273696F6E0073617920AE
:10538C0068656C6C6F20776F726C640068656C6C10
:10539C006F000000546F6F206D616E792061726731
:1053AC00732021205765206F6E6C79205573653AF8
:1053BC000A0000002573200052542D546872656158
:1053CC0064207368656C6C20636F6D6D616E6473C3
:1053DC003A0A00005F5F636D645F0000252D313673
:1053EC0073202D2025730A0025733A20636F6D6D91
:1053FC00616E64206E6F7420666F756E642E0A0089
:10540C0053686F7720746865206D656D6F727920B5
:10541C00757361676520696E207468652073797394
:10542C0074656D2E000000005F5F636D645F6672D3
:10543C00656500004C6973742074687265616473EF
:10544C0020696E207468652073797374656D2E0005
:10545C005F5F636D645F7073000000005254202D19
:10546C0020546872656164207368656C6C20686593
:10547C006C702E005F5F636D645F68656C7000001C
:10548C006D7368200000000066696E736820000070
:10549C003E0000002573257300000000080000008A
:1054AC002563000008257320200800000820080050
:1054BC006E6F206D656D6F727920666F72207368E8
:1054CC00656C6C0A00000000747368656C6C0000FD
:1054DC007368727800000000627573206661756CE9
:1054EC00743A0A005343425F434653525F42465359
:1054FC00523A30782530325820000000494255533A
:10550C004552522000000000505245434953455229
:10551C0052200000494D50524543495345525220A8
:10552C0000000000554E53544B45525220000000D1
:10553C0053544B45525220005343422D3E42464158
:10554C00523A253038580A006D656D206D616E61D8
:10555C006765206661756C743A0A00005343425FBC
:10556C00434653525F4D4653523A307825303258A9
:10557C00200000004941434356494F4C2000000095
:10558C004441434356494F4C200000004D554E5367
:10559C00544B4552522000004D53544B455252200F
:1055AC00000000005343422D3E4D4D41523A2530F0
:1055BC0038580A007573616765206661756C743ABA
:1055CC000A0000005343425F434653525F55465313
:1055DC00523A30782530325820000000554E444560
:1055EC0046494E5354522000494E5653544154454B
:1055FC0020000000494E5650432000004E4F4350AF
:10560C0020000000554E414C49474E4544200000B7
:10561C0044495642595A45524F2000006661696C04
:10562C00656420766563746F722066657463680ABE
:10563C00000000006465627567206576656E740A0B
:10564C00000000007073723A203078253038780AE8
:10565C00000000007230303A203078253038780A5B
:10566C00000000007230313A203078253038780A4A
:10567C00000000007230323A203078253038780A39
:10568C00000000007230333A203078253038780A28
:10569C00000000007230343A203078253038780A17
:1056AC00000000007230353A203078253038780A06
:1056BC00000000007230363A203078253038780AF5
:1056CC00000000007230373A203078253038780AE4
:1056DC00000000007230383A203078253038780AD3
:1056EC00000000007230393A203078253038780AC2
:1056FC00000000007231303A203078253038780ABA
:10570C00000000007231313A203078253038780AA8
:10571C00000000007231323A203078253038780A97
:10572C0000000000206C723A203078253038780A5E
:10573C00000000002070633A203078253038780A59
:10574C000000000068617264206661756C74206FE3
:10575C006E207468726561643A2025730D0A0D0A17
:10576C000000000068617264206661756C74206FC3
:10577C006E2068616E646C65720D0A0D0A00000083
:10578C006D61696E000000007469646C6500000056
:10579C00284E554C4C2900000A205C207C202F0AF6
:1057AC00000000002D205254202D202020202054B9
:1057BC006872656164204F7065726174696E6720F0
:1057CC0053797374656D0A00202F207C205C202097
:1057DC0020202025642E25642E2564206275696C9A
:1057EC00642025730A0000004A616E203135203296
:1057FC00303234002032303036202D2032303230EE
:10580C0020436F70797269676874206279207274B2
:10581C002D746872656164207465616D0A00000006
:10582C000000010002000100030001000200010061
:10583C00040001000200010003000100020001004D
:10584C00050001000200010003000100020001003C
:10585C00040001000200010003000100020001002D
:10586C00060001000200010003000100020001001B
:10587C00040001000200010003000100020001000D
:10588C0005000100020001000300010002000100FC
:10589C0004000100020001000300010002000100ED
:1058AC0007000100020001000300010002000100DA
:1058BC0004000100020001000300010002000100CD
:1058CC0005000100020001000300010002000100BC
:1058DC0004000100020001000300010002000100AD
:1058EC00060001000200010003000100020001009B
:1058FC00040001000200010003000100020001008D
:10590C00050001000200010003000100020001007B
:10591C00040001000200010003000100020001006C
:10592C0030313233343536373839414243444546C9
:10593C00000000003031323334353637383961628B
:10594C006364656600000000746F74616C206D65A3
:10595C006D6F72793A2025640A00000075736564D6
:10596C00206D656D6F7279203A2025640A00000065
:10597C006D6178696D756D20616C6C6F63617465B8
:10598C0064206D656D6F72793A2025640A00000001
:10599C0068656170000000006D656D20696E69744A
:1059AC002C206572726F7220626567696E2061646B
:1059BC00647265737320307825782C20616E6420B6
:1059CC00656E642061646472657373203078257829
:1059DC000A000000746F20667265652061206261A8
:1059EC0064206461746120626C6F636B3A0A00001E
:1059FC006D656D3A203078253038782C20757365BC
:105A0C006420666C61673A2025642C206D6167699F
:105A1C006320636F64653A203078253034780A004F
:105A2C006C697374206D656D6F7279207573616725
:105A3C006520696E666F726D6174696F6E0000002F
:105A4C006C6973745F6D656D000000004C4544001B
:105A5C006C65645F746872656164206372656174FF
:105A6C00652E2E2E6F6B0A006C65645F7468726510
:105A7C006164206372656174652E2E2E6661696C9B
:105A8C0065640A00414443006164635F7468726535
:105A9C006164206372656174652E2E2E6F6B0A0033
:105AAC006164635F746872656164206372656174BC
:105ABC00652E2E2E6661696C65640A006164632034
:0C5ACC006973202564092564200A00008D
